:020000040000FA
:040000002FEF05F0E9
:100800000057656C636F6D6520746F204368696382
:100810006B656E20526F61642C2074686520626580
:050820007374200000CC
:1008260034C0D9FF35C0DAFFDECFF6FFDDCFF7FFE4
:100836000800F550250AD8A423EF04F025EF04F0AC
:1008460070EF04F034C0D9FF35C0DAFFDE2A000E9F
:10085600DD22000E246E000E236E23C027F024C076
:1008660028F02568266834C0D9FF35C0DAFFDECF08
:10087600F6FFDDCFF7FF0800F550250AD8A446EFAE
:1008860004F048EF04F061EF04F034C0D9FF35C03E
:10089600DAFFDE2A000EDD22000E2A6E250E296EF4
:1008A60032C02BF033C02CF090EC04F0000E336E07
:1008B600010E326E8FEF04F08FEF04F034C0D9FFD3
:1008C60035C0DAFFDE2A000EDD22000E336E000E82
:1008D600326E8FEF04F08FEF04F034C0D9FF35C0CD
:1008E600DAFFDECFF6FFDDCFF7FF0800F550296E01
:1008F6002A6A32C02BF033C02CF090EC04F034C0DE
:10090600D9FF35C0DAFFDE2A000EDD22000E336E77
:10091600010E326E8FEF04F012002B502C10D8B45B
:1009260097EF04F099EF04F0A4EF04F02B502C108D
:10093600D8A4A0EF04F0A2EF04F0A9EF04F0A4EF0E
:1009460004F0295044EC05F0E4EF04F020EE04F046
:100956002B50D9262C50DA22DE50DE10D8B4B6EF52
:1009660004F0B8EF04F0D5EF04F020EE04F02B50BD
:10097600D9262C50DA2210EE02F02B50E1262C500C
:10098600E222DE50E65CE650800A316EDE50800AD6
:100996003158D8B0D1EF04F0D3EF04F0E4EF04F00F
:1009A600D5EF04F020EE02F02B50D9262C50DA2297
:1009B600DE2A000EDD22E4EF04F0E4EF04F0E4EFBB
:1009C60004F012003AC03EF03BC03FF0000E226E2B
:1009D600000E216E03EF05F038C032F039C033F057
:1009E6003E0E346E000E356E3CC036F03DC037F01C
:1009F60013EC04F0325021263350222203EF05F087
:100A06003EC0F6FF3FC0F7FF0800F5500009D8A426
:100A16000FEF05F011EF05F0EFEF04F021C038F00D
:100A260022C039F01200420E446E000E456E000ED2
:100A3600386E000E396E40C03AF041C03BF0440EAD
:100A46003C6E000E3D6EE5EC04F038C042F039C055
:100A560043F02EEF05F0120000EE01F0280EEE6ACC
:100A6600E806FDE1000EF86E080EF76E00013CEF99
:100A760005F0010E406E080E416E16EC05F000EF13
:040A860000F012006A
:020000040020DA
:08000000FFFFFFFFFFFFFFFF00
:020000040030CA
:0E00000000051F1FFF8385FF0FC00FE00F409C
:00000001FF
